:020000040800F2
:100000007004002045010008050C0008010C0008E0
:10001000030C0008B10100088F1300080000000065
:10002000000000000000000000000000291300088C
:10003000B301000800000000070C00082B130008A3
:100040005F0100085F0100085F0100085F01000810
:100050005F0100085F0100085F0100085F01000800
:100060005F0100085F0100085F0100085F010008F0
:100070005F0100085F0100085F0100085F010008E0
:100080005F0100085F0100085F0100085F010008D0
:100090005F0100085F0100085F0100085F010008C0
:1000A0005F0100085F0100085F0100085F010008B0
:1000B0005F0100085F0100085F0100085F010008A0
:1000C0005F0100085F0100085F0100085F01000890
:1000D0005F0100085F0100085F0100085F01000880
:1000E0005F0100085F0100085F0100085F01000870
:1000F0005F0100085F0100085F0100085F01000860
:100100005F0100085F0100085F0100085F0100084F
:100110005F0100085F0100085F0100085F0100083F
:100120005F0100085F0100085F0100085F0100082F
:10013000DFF80CD000F02AF800480047D11300087F
:10014000700400200648804706480047FEE7FEE7A7
:10015000FEE7FEE7FEE7FEE7FEE7FEE7FEE7FEE777
:100160008D13000831010008D2B201E000F8012B24
:10017000491EFBD270470022F6E710B513460A4627
:1001800004461946FFF7F0FF204610BD064C074D08
:1001900006E0E06840F0010394E807009847103457
:1001A000AC42F6D3FFF7C8FF005B0508205B0508EB
:1001B000FEE7704772B6FEE770B5044600F010F92E
:1001C0000546601C02D004480078044400F008F999
:1001D000401BA042FAD370BD080000202DE9F84F63
:1001E000DFF8C891002409F1040A0AF1040B234640
:1001F0000F270BF1040ED1E00125A54006EA050208
:10020000AA4276D1DFF8A8C14E68A6EB0C08664575
:100210002BD00DDC032E34D005DC36B3012E19D0E3
:10022000022E2FD11BE0112E16D0122E2AD119E04A
:10023000B8F5881F19D006DCB8F5803F15D0B8F5A1
:10024000801F1FD111E0B8F5001F0ED0B8F5041FB4
:1002500018D10AE0CB6815E0CB681B1D12E0CB6813
:1002600008330FE0CB680C330CE08B682BB1012B0B
:100270004FF0080303D0456104E0042302E0056168
:1002800000E00023FF2A01D8064601E000F1040641
:100290004FEA840501D9A5F12005D6F8008007FAB8
:1002A00005FC28EA0C0803FA05F548EA0508C6F833
:1002B00000804D68ED0070D53E4DAE6946F00106F8
:1002C000AE61AD6924F0030605F0010500953A4DD5
:1002D00006EB050CDCF80850A607360F07FA06F8FF
:1002E00025EA0805DFF8D480404503D14FF0000827
:1002F00025E052E0DFF8C880404502D14FF0010808
:100300001DE0DFF8C080404502D14FF0020816E042
:10031000DFF8B480404502D14FF003080FE0DFF86A
:10032000AC80404502D14FF0040808E0DFF8A0801F
:10033000404502D14FF0050801E04FF0060808FAE9
:1003400006F848EA0508CCF808804D68D9F800603E
:10035000ED034D4601D5164300E096432E604D68EF
:10036000DAF80060AD03554601D5164300E0964328
:100370002E604D68DBF80060ED025D4601D5164346
:1003800000E096432E604D68DEF80060AD027546D1
:1003900001D5164300E096432E60641C0A68164699
:1003A000E2407FF429AFBDE8F88F0000000401406F
:1003B0000000111000100240000001400008014040
:1003C000000C0140001001400014014000180140E1
:1003D000001C01400AB1016170470904FBE70000FD
:1003E00001488068704700000800002002488168CA
:1003F000027811448160704708000020074810B55A
:10040000016841F010010160032000F067F800204E
:1004100000F006F800F024F8002010BD0020024093
:1004200070B50D4D04464FF47A712878B1FBF0F0A9
:100430000A490968B1FBF0F000F0CEFB48B9102C76
:1004400007D200222146501E00F028F800206C60E0
:1004500070BD012070BD00000800002014000020C5
:100460000C4808B5816941F001018161816901F0A1
:1004700001010091C16941F08051C161C06900F082
:10048000805000900448416821F0E06141F0007123
:10049000416008BD0010024000000140F0B40E4B66
:1004A0001B680C46C3F30223C3F10705042D00D9D2
:1004B0000425191D072901D2002300E0DB1E0126B7
:1004C00006FA05F1491E214099409E40761E1640CD
:1004D0003143F0BC00F05CBF0CED00E0064900F0D9
:1004E000070208684FF6FF03184040EA0220034A5B
:1004F00010430860704700000CED00E00000FA05B2
:100500002DE9F0470F46050061D0434E306800F0FA
:100510000700B84209D2306820F007003843306045
:10052000306800F00700B84251D128683B4C810781
:1005300012D5400703D5606840F4E0606060287819
:10054000000703D5606840F4605060606068A96887
:1005500020F0F000084360602878C00728D0686861
:10056000012810D02168022810D0890700292EDA2E
:10057000616821F0030101436160FFF731FF8046AC
:1005800041F288390DE021688903EFE78901EDE741
:10059000FFF726FFA0EB0801494502D90320BDE87B
:1005A000F0876068696800F00C00B0EB810FEFD154
:1005B000306800F00700B8420BD9306820F007001F
:1005C00038433060306800F00700B84201D00120A5
:1005D000E5E72878400705D56068E96820F4E06021
:1005E000084360602878000706D56068296920F410
:1005F000605040EAC100606000F018F86168084A85
:10060000C1F30311515CC840064908600648006800
:10061000FFF706FF0020C2E7002002400010024062
:10062000EF5A0508140000200C00002012A185B02C
:100630000FC98DE80F0014A0144A00680490516897
:10064000134801F00C03042B10D0082B0ED1C1F37A
:100650008343C9031DF803000AD5516804AAC1F3F6
:100660004041515C0A4A5043B0FBF1F005B070477D
:1006700008494843FAE70000020304050607080991
:100680000A0B0C0D0E0F10100102000000100240AA
:1006900000127A0000093D002DE9F84F040070D0E7
:1006A0002078C04DC00749D06868C0F38100012898
:1006B00007D06868C0F38100022809D16868C003C8
:1006C00006D52868800339D560680028E7D035E072
:1006D0006068B0F5803F0BD010B1B0F5A02F11D0FD
:1006E000286820F480302860286820F4802002E008
:1006F000286840F480302860606890B1FFF770FE91
:1007000006460AE0286840F480202860F0E700BF31
:10071000FFF766FE801B642873D828688003F7D52E
:100720000CE0FFF75DFE064605E000BFFFF758FE50
:10073000801B6428F0D828688003F7D420789A4E6C
:1007400080074FF001094FF0000839D5686810F0B4
:100750000C0F07D06868C0F38100022809D16868CF
:10076000C00306D42868800714D52069012808D161
:1007700010E02069B0B1C6F80090FFF731FE0746DF
:1007800005E00AE1FFF72CFEC01B0228C4D8286848
:100790008007F7D52868616920F0F80040EAC100B9
:1007A00028600DE0C6F80080FFF71AFE074604E057
:1007B000FFF716FEC01B022823D828688007F7D44D
:1007C000207800072CD57948A169D9B1C0F80090EC
:1007D000FFF706FE074604E0FFF702FEC01B0228F3
:1007E0000FD8686A8007F7D571484FF4FA5100684E
:1007F000B0FBF1F0009000BF0098411E0091FAD2CA
:100800000EE080E0C0F80080FFF7EAFD074604E054
:10081000FFF7E6FDC01B022875D8686A8007F7D489
:100820002078400760D5E8690027C00008D4E8694F
:1008300040F08050E861E869012700F080500090A6
:100840005C480168C90513D40168834641F480718E
:100850000160FFF7C5FD824606E000BFFFF7C0FD5F
:10086000A0EB0A0064284ED8DBF80000C005F5D5DF
:10087000E06801280AD008B1052813D0286A20F0C2
:1008800001002862286A20F0040002E0286A40F093
:1008900001002862E06841F2883B98B1FFF7A0FDB3
:1008A00082460BE0286A40F004002862EEE700BFB1
:1008B000FFF796FDA0EB0A0159455AD8286A800730
:1008C000F6D50CE0FFF78CFD824605E0FFF788FDCA
:1008D000A0EB0A0159454CD8286A8007F6D41FB10D
:1008E000E86920F08050E861E06988B36968C1F385
:1008F0008101022944D00228C6F8608004D0FFF7A5
:100900006FFD044638E034E0FFF76AFD074604E077
:10091000FFF766FDC01B02282BD828688001F7D49A
:10092000206AB0F5803F05D16868A16820F40030E6
:1009300008436860D4E908010843696821F4741128
:1009400008436860C6F86090FFF74AFD044606E079
:1009500025E000BFFFF744FD001B022809D82868E6
:100960008001F7D51BE000BFFFF73AFD001B02280E
:1009700002D90320BDE8F88F28688001F4D40EE086
:100980000128F7D06868226A00F48031914204D1CE
:10099000616A00F47010884201D00120EAE700206B
:1009A000E8E700000010024000004242800442429A
:1009B000140000200070004090F85100704770B59E
:1009C000040009D0606A002540B125616561A56217
:1009D00094F8510040B10CE0012070BD6068B0F5A2
:1009E000827FF4D0E561F2E784F85050204600F0B1
:1009F0003FF8022084F851002068016821F040018E
:100A00000160A088218900F4827001F40441084348
:100A1000A18901F400610843217C01F0020108432F
:100A2000217D01F001010843218B01F4007108438D
:100A3000217F01F03801084394F8201001F0800173
:100A40000843218D01F40051084321680860A06922
:100A5000042101EA1040216848602068C16921F43E
:100A60000061C1616565012084F85100002070BDFE
:100A700070472DE9F84F044690F8500000271D46B6
:100A80001646894601280DD04FF0010B84F850B06E
:100A9000FFF7A6FC804694F85100BA46012804D01E
:100AA000022793E00220BDE8F88FB9F1000F73D060
:100AB000002E71D0032084F85100C4F854A0C4F86B
:100AC0003090A686E686C4F838A0A4F83CA0A4F826
:100AD0003EA0C4F844A0C4F840A0A068B0F5004F00
:100AE00009D12068016821F0400101602068016897
:100AF00041F48041016020680168490603D401681F
:100B000041F040010160E068B0F5006F606803D01B
:100B100030B3012E24D041E008B1012E1CD1206B4E
:100B200021680088C86006E020688168890709D5C7
:100B3000216B0988C160206B801C2063E08E401E01
:100B4000E08609E0FFF74CFCA0EB0800A84202D3C6
:100B5000681C01D031E07DB3E08E0028E4D120E0B4
:100B6000206B21680078087306E020688168890797
:100B700009D5216B09780173206B401C2063E08E3E
:100B8000401EE0860AE0FFF72BFCA0EB0800A8421D
:100B900003D3681C02D010E017E06DB1E08E00288E
:100BA000E3D142462946204600F02EF808B1202025
:100BB0006065A06818B106E0FFE7032706E020683B
:100BC000C16880680090606D00B1012784F851B061
:100BD00084F850A0384666E710B5401EB0F1807F1B
:100BE00001D3012010BD4FF0E02460610F21601798
:100BF00000F0CEFB0020A06107202061002010BD86
:100C0000FEE7FEE7FEE7704738B50B460092044664
:100C10000022802100F008F8002804D0606D40F028
:100C200020006065032038BD2DE9F8431E4691463B
:100C300088460446089DFFF7D3FB401B351AFFF793
:100C4000CFFB074625480068C0F3CB30684338E047
:100C5000701C37D0FFF7C4FBC01BA84203D215B1EC
:100C6000009860B32CE02068416821F0E001416009
:100C70006068B0F5827F0BD1A068B0F5004F02D05C
:100C8000B0F5806F04D12068016821F04001016057
:100C9000A06AB0F5005F09D12068016821F4005115
:100CA00001602068016841F400510160012084F86E
:100CB0005100002084F850000320BDE8F88300258F
:100CC000401E00902068816838EA010004D00021AD
:100CD0004945BDD10020F0E70121F9E714000020CB
:100CE0002DE9F0411546124A069E1C469788B842E7
:100CF0001CD2D388994219D200EB050CACF1010C3F
:100D0000BC4513DA0A19521E9A420FDA93B21FFA3F
:100D10008CF200F003FA00F09FF96900614330465D
:100D200000F0D0F9BDE8F04100F03EBABDE8F08136
:100D30000000002038B51546049A1C46A8420DD183
:100D4000A142009205DD091B491C0BB2012221467C
:100D500013E05A1A521C13B201220EE0A1420FD125
:100D6000A842009205DD401B401C02B20123284628
:100D700003E02A1A521C12B2012300F09BF838BD7E
:100D800000922A4600F001F838BD2DE9FC5F0646C6
:100D90009A4690460D46901B00D5404207B2BAEBEA
:100DA000050000D540420FFA80F94FF0FF3046456C
:100DB00001DA012100E0014601915146554500DA72
:100DC00001208346A7EB090004B240460C9A00F0CC
:100DD00021F8C9F10000009016E0294630460C9A2F
:100DE00000F018F86000009900B2884205DDA4EB1D
:100DF00009010CB2019931440EB2B84204DAE0198B
:100E000004B205EB0B0005B24645E6D15545E4D1E9
:100E1000BDE8FC9F07B5002812DB0A4A9388984278
:100E20000EDA00290CDBD288914209DA8BB282B249
:100E300089B280B200F072F9012102A800F0C6F870
:100E40000EBD0000000000202DE9F8431746089C65
:100E50001E460D46804602460094FFF76BFF3A4659
:100E60003346294610460094FFF764FF2B463A4666
:100E7000194640460094FFF75DFF33463A4619464F
:100E800040460094FFF756FFBDE8F88338B590421E
:100E9000049D02DD044610462246994202DD0C46BE
:100EA000194623465B1A121A1BB212B2009500F0C3
:100EB00001F838BD70B51C46114B15469A88904212
:100EC0001DDADB8899421ADA4619964201DD121AB8
:100ED00015B20A199A4201DD5A1A14B20A19521EA1
:100EE00093B24219521E92B289B280B200F016F942
:100EF00004FB05F104A8BDE8704000F067B870BDC0
:100F00000000002008B500900448C18880880BB21A
:100F100002B200210846FFF7CDFF08BD0000002007
:100F200010B5084C002204212046FFF753FA142084
:100F3000FFF742F920460122BDE810400421FFF7E7
:100F400049BA0000000801402DE9F04100F07CF9A9
:100F500000F0C4F9012211461948FFF73BFA4FF49B
:100F60009670FFF729F9174887218180F021C18009
:100F700000F072F8FFF7D4FF134C14F8015B17E090
:100F8000207800F071F86078A41C00F0800730F041
:100F9000800604D03146204600F094F834443FB136
:100FA00014F8010BFF2801D14FF4FA70FFF704F990
:100FB0006D1EEDB2E4D2BDE8F041022000F0FCB8B5
:100FC0000008014000000020CC5A050838B50C4646
:100FD000054600F041F82888000A8DF800002878BE
:100FE0008DF8010003E00221684600F06BF8641EF2
:100FF000F9D200F0D9F838BD00B585B000210091D4
:101000000191029103910068104988421BD1104858
:10101000C16941F48041C161C16901F48041049119
:10102000816941F0080181618069694600F008002A
:1010300004904FF420400090022001900320039080
:101040000448FFF7CBF805B000BD000000380040B1
:1010500000100240000C0140002210210148FFF75F
:10106000B9B900000008014031B50C4C002208213C
:101070002046FFF7AFF94FF0FF33012269460848D9
:10108000FFF7F7FC0648FFF797FC0128FAD1012289
:1010900008212046FFF79EF938BD000000080140F6
:1010A0001800002001B54FF0FF33012269460448C3
:1010B000FFF7DFFC0248FFF77FFC0128FAD108BDEB
:1010C000180000202DE9F0414FF480370C4605460A
:1010D0004FF0FF33B94202D28AB2014611E098467E
:1010E0004FF6FF764346324629460B48FFF7C1FCD0
:1010F000A4F57F44FF3C3544BC42F3D2A2B2434640
:1011000029460548FFF7B5FC0348FFF755FC0128C1
:10111000FAD1BDE8F0810000180000202DE9F0416F
:10112000984615460E460746FFF796FF1D4CAF4200
:1011300016D8A088854213D820883918284485B24B
:101140008FB22A20FFF790FF380AFFF7ABFFF8B203
:10115000FFF7A8FF280AFFF7A5FFE8B2FFF7A2FFF5
:101160004046864217D8E188884214D8618808EB47
:101170000100721885B294B22B20FFF775FF200A88
:10118000FFF790FFE0B2FFF78DFF280AFFF78AFF15
:10119000E8B2FFF787FF2C20FFF766FFBDE8F041BC
:1011A00000F002B800000020012210210148FFF7E2
:1011B00011B90000000801402DE9F0478046FFF713
:1011C0004BFF3620FFF750FF87251E4CF0262827BF
:1011D0004FF03409B8F1010F0BD04FF0350AB8F1D8
:1011E000020F0ED0B8F1030F1AD0B8F1040F13D1CB
:1011F0001FE00020FFF756FFA580E680A4F80090CE
:1012000015E06020FFF74EFFA680E5802780A4F858
:1012100002A00020FFF776FEBDE8F047FFF7C4BF4D
:10122000C020FFF73FFFA580E680A4F800A06780FC
:10123000EFE7A020FFF736FFA680E5802780A4F81F
:101240000290E6E70000002030B5224885B08169B1
:1012500041F020018161816901F0200104918169DF
:1012600041F0040181618069012400F004000490D0
:101270000420CDE900040320CDE90240164D694663
:101280002846FEF7ABFF002204212846FFF7A2F80C
:101290000820009069462846FEF7A0FF002208219A
:1012A0002846FFF797F81020009069462846FEF779
:1012B00095FF002210212846FFF78CF86946284642
:1012C0000094FEF78BFF002201212846FFF782F8E9
:1012D00005B030BD0010024000080140114810B5B3
:1012E0000F4901604FF48271416000210222816048
:1012F000C0E90312012242615202C0E906210162E3
:10130000416281620A21C162FFF776FE0548FFF75C
:1013100056FB002803D0BDE81040FEF74BBF10BDC0
:1013200000380040180000207047FFF75FB830B564
:101330008FB028216846FEF71EFF14210AA8FEF789
:101340001AFF01210804CDE90010002402940225AF
:101350000491CDE907504FF4E01009906846FFF77B
:101360009BF908B172B6FEE70F20CDE90A054FF4EC
:101370008060CDE90C4002210AA80E94FFF7C0F866
:10138000002801D072B6FEE70FB030BD7047FEE70F
:101390000907090E002804DB00F1E02080F80014A2
:1013A000704700F00F0000F1E02080F8141D704736
:1013B00002E008C8121F08C1002AFAD1704770471E
:1013C000002001E001C1121F002AFBD1704700007C
:1013D00008B5FFF713F8FFF7AAFFFFF7B5FD4FF4C5
:1013E00078463046FFF78EFD4FF4FA652846FEF743
:1013F000E3FE4FF4FC60FFF785FD2846FEF7DCFEB8
:101400001F20FFF77FFD2846FEF7D6FE4FF6FF7040
:10141000F023002100901A460846FFF737FD6810B8
:10142000FEF7CAFE0024F82707EA5400C4F1FF01C2
:10143000000201F0FC0140EAC10040EAD400C4F11E
:10144000F003214600901A460846FFF71FFDE41CF2
:10145000E4B2F02CE8D30024C4F1F00321461A468C
:1014600008460096FFF7F0FCE41CE4B2782CF3D3B6
:101470002846FEF7A1FE1248F023002100901A46EC
:101480000846FFF72DFC2846FEF796FE0D48F02390
:10149000002100901A460846FFF722FC2846FEF776
:1014A0008BFE0948F023002100901A460846FFF7FA
:1014B00017FC2846FEF780FE4C20FFF723FDFEE7D1
:1014C000CC140008CCD60108CC98030864885405D5
:1014D0008DABA64E7D496CA6856995AA8D49B66EE1
:1014E000A60C95AA8D689DCBB64E7C6932434328E5
:1014F0007D3185D396549693754E96737DF05CEC52
:1015000096B49EB46D4F754F75506D2F7DB18E534F
:101510008E339EB5861275708E3396747D908E33A1
:10152000548C54AC96B475B0650E5D0E75B0442AFB
:101530005CED4C8B654E444A6D6F652E652E5CEDFF
:101540005CEC4C8A5CEC4CAB5CED5D0D54AC5D0D21
:10155000656E6D8F6D6F6D6E4C0A120212034C2B0F
:101560005D0E54CC33872B662B263BC94C4A54ACBA
:101570004429442954AB6D6E4C293BC74C09546A2D
:10158000546B4C0922843B673B273B2743882AA5A1
:1015900032E63B473B2722632AC4438664AA5C4861
:1015A000436454056CA874E8648774E8854A7D2A0E
:1015B00064465384640674A85BA384EA744919C121
:1015C0002A857D307D7196749E948E1296338E128C
:1015D0008E12548C5CCD6D6F6D0E7DB0754F7D6F2E
:1015E000750E750E750E64CD754F64CE6D0E6D0D56
:1015F0006D0D4C096D0E75904C2A546B652E5CCCAC
:10160000442A4C8B652E5CED54AC54AC5CCD7550CB
:101610003B894BEB5C2D2204292083079B06B326D4
:1016200089E1AAE4BB26AAC49A229A22A243AA85E7
:10163000AA86AA85A245A245B2A5AA64A2239A02B7
:10164000AA65A22499E391A299E399C399E491A38D
:1016500091C491E589A4818381638163796379432E
:10166000818481A481A4818379427943916499C65C
:10167000918581438164818481A479A479A569A538
:10168000410330A1516469C67164718569646985DB
:10169000698459235943596459645164516451848C
:1016A000516449034903514451645144750A6467C4
:1016B0004BC44BA34BC364658548854985086C457D
:1016C00074869DEBB6CE9DCA9DAB744811602A45C9
:1016D0007D1064AE752F96539673B756AF7675AF7F
:1016E0005CED85F1757085F285D285D285F2969490
:1016F0008E337DB175907570861264EE7DB08E5319
:101700006D4F75B0650E4C2B652E54AC75D16D8F39
:101710003C095D0D75B03C094C6B4C8B4C8B5D0DE1
:101720006D6E5D0C54CB446A54AB6D6E4C8B4C6B40
:1017300054CC4CAB444A4C4A4BE91A441A2443CA91
:10174000442A3C2A3BE8440943C9338833884C4A3D
:101750003BC84409338723042B2533664C4943C8CF
:1017600043C843C83B675C4B43A82AC51222228466
:10177000330643682AE53B4633042AE343A66489DB
:101780005C264BA44BA464876CC86CC8856A8D6AC0
:101790006CA853A474A86C4674468D0A744A00A0C1
:1017A00009618D92B738AF178E1285D185F185D139
:1017B0006D0E7590759075907D907D90756F7D8F95
:1017C0005C6B5C6B33266D0E544B43EA6D0E43A885
:1017D00043C83B884C2A64ED4C2A3BA84409548BEF
:1017E0006D8F4C8B3BE95CED54CC3BE94C2B4C4B67
:1017F00043CA64CE648E21C318E0830671A18A02B5
:101800009A63B2E591E19A22A2439A029A0299E27E
:1018100099C391A2898291A2A203AA4491A189604D
:1018200091A29182898281218961894181428121AC
:1018300081428963814279027902712268E168C13B
:1018400068E170E271017102710281438944892368
:1018500078C270C179027922710268E26923592342
:1018600038C2288049036185694460E260E26123EF
:10187000612358E258E259235943512348E3510365
:1018800048E240C248E35103490348E26CA8648837
:10189000856A8DAB6CC77D0895CB7D078D29958AB0
:1018A0009DCBA64C95EA9DEA9529744819A02A4536
:1018B00074CF8DF3A6F6A715A6F5756F9673AF5680
:1018C0009EB475B0757085F26D2F757096538E321B
:1018D00096539694861285F175907570756F64EEC7
:1018E0008E537DF14C4B54AC7DD18E737DF15CED0C
:1018F000652E6D8F75F06D6F54AC54AC652E5D0D1B
:101900004C8A44495CEC6DAF5D2D54CC652D5D0D6A
:10191000652D5D0D5CEC5CEC43C909E2120364CEFD
:101920006D904CAC33872B674C4B4C4B43E94C2AA6
:101930003BA82B262B2522E41AC41AA33BA743C895
:101940004C094BE943A843A84BE94BE92AC53306A8
:10195000436743871A422AC43B464BA654075C4858
:101960005C274BA43B225C2674E96C8764466C8739
:1019700074E874A77CC843215BA38D2B742900C035
:101980003AE79E546CEF9E948E5285D06D0D7D90FB
:101990007DB18E338E535CEE6D2F75704C0A6D0EDB
:1019A00085B03B678DF18E124C0A546B43C94C0ACB
:1019B0005C8B546B23053BC86D4E4C4B4C4A54AB6F
:1019C0006D4E654E54EC5CED5CEC4CAB54CC442A53
:1019D0004C0A43C96CEF4B48084093C992C5922208
:1019E000C3689202816099E2A243AA8499E2A22389
:1019F000AA4499C3898291A2918191C191C18940E0
:101A0000918191819161894189618962810178E146
:101A100079018142790170E170E170E170E168E182
:101A200070E168C168C168E171228163814381020C
:101A300070C170C1790270E168A060A169035903A7
:101A400040E230A140C25944694460E260C268E2A9
:101A500068E360C250815081508150A1508158C3C9
:101A600050A250C250E358E3488148A2858C7D2A99
:101A7000A66EA66E7D4A7D28854864245BC37CC71C
:101A80008D89854895A995A9B64E8D0A32424B4855
:101A90006CAF6CEF7DB07D9085F185F18E529693A1
:101AA000AF567DB064EE6D0E757085D196749674E8
:101AB00096949E9485F29E94756F6D0E64ED6D4FB5
:101AC0006D4F75906D6F75B06D906D6F75B0444AC8
:101AD0006D8F652D5CEC5D0D33C84C6B6D8F654E65
:101AE0004C8A4CAB5CEC6D6E654E652E654E5D0DA3
:101AF000652E654E6D6E6D4E648C1223016143AA96
:101B000054AC5CED4C8B23463BA843E9334743E997
:101B1000546B3BC843C83BA822E422C433464C095B
:101B200054294C0933462AE55429542A33053305F0
:101B30003B46228343663B25542854284BC64BA57D
:101B400054065C263B42436354055C266446642588
:101B5000642564666C6664257466A5ED6C2900C016
:101B60002A86A696542C7DB1965296526D0D6D0E16
:101B70007DB064CD548C7DD17550650E75706D0E41
:101B80006D0E542A6CED5CAC4C2A546B64CD5C8BAE
:101B900043E964CD440943E95CAC548B5CCC654EAD
:101BA000654E4C8B4C8B54CC54AB54CC54EC442AE7
:101BB00023055C8C752F2A4418E0832782439A847E
:101BC000AAA589A189A1A203BAE6B2A5A24399E276
:101BD00091818961918291A2898199C299C189601B
:101BE00091A199C391A28961896191828141790111
:101BF00079018122792179017901710270E168C14D
:101C000070C170E179027922790270E170C170C10E
:101C100078E270C170C170E270C168C17944692313
:101C200040C238A140C25923716471037103690233
:101C300068E260C260C258A258A2588258C26103CA
:101C400060E360E358C350A2488150C24BA45C4794
:101C50005C2664467D087D2874C77D0885087CE77E
:101C600095CA8D89856785278D0884C92A01430710
:101C700074EF85B296538E529E939EB49672758F72
:101C8000861196538E1285F2A7168E537DB185F27A
:101C90007570754F75908E1296538E329EB485F185
:101CA00064ED6D6F64EE64EE650E5CCD652E652EA1
:101CB000652E4C8B33C84C8B7DF154AC3BE9442AE8
:101CC00054AB75CF75F075AF75AF654E6D8F7DF008
:101CD0006D6F444A654E4C4A5C4B2264014143AAF5
:101CE00043EA2B8833A82B464C2A546B4C094C2AC8
:101CF0004C2A4C093B882B052AE533463BA84BE987
:101D0000336643A83BA72B052B054C0943C82AE49F
:101D10001A6222A32AC32AC23B6533233B235406FB
:101D2000648864885C265C0564677D0974E87D08C6
:101D300074C77D297CC77D0874A67CA963E800C0B0
:101D40002A8674F07D51754F756E756E64CC542A79
:101D50007D908E335CAD7DB18DF26D2F8DF27D90D7
:101D60006D2F7D90544B3B885CAC85D15C8C754F5E
:101D70005CAC3BA843E9756F5CAC5CED654E75D01F
:101D80006DAF54CC54AC5D0D444A2B873C095D0DBE
:101D90003C0944094C0A2A6429607AE6A3679A83BD
:101DA000B306A24491C199E2A1E2A1E2A1E299E2C3
:101DB00099A199C2A20399C2918191608940892019
:101DC000916199A291A2916289619182918281210E
:101DD00081218121790178E1790170E17101790234
:101DE000710170E170E1710170E170C068C070C193
:101DF000790270C170C1790270C168A181646923E0
:101E00004081306048E261447123690260E158A07A
:101E1000508058C161236943612358E2610358E24D
:101E200058E350C248A148A148C140A153C574C954
:101E30006CA88D8B854974E86CA685287CE785089D
:101E400085288D688D6795A8CF0F8D2A19C03AC651
:101E50007D308DD29EB49E9396739EB48E317DF06C
:101E6000650D7DD1754F8E33AF1696537DB185D1FB
:101E70007DB18E12A6F6A716A71696747DD185D1D0
:101E800085F1652E75B04C4B759096946D6F75B05D
:101E90006D8F6D6E4C6A6D6E2B674C6B444A5D0D99
:101EA000654E5D2D654D75AF7DF15CED54AC75AF44
:101EB0005CEC3BC86D8E6D4E6D0E2AC6016143AA67
:101EC0004C2B3BE9444A3BE84C2A546B43A843C99A
:101ED0004C094C2A334622C42AE52B0533473B875D
:101EE0004C2954293B8743C8334633253B8633046A
:101EF0002AE43B454BA654276489542754275406AB
:101F000053E55C065C264B8343836C878D6A8D6A40
:101F10006C867D2885497D088D698D4A84EC00E0BA
:101F200053AA8DD37D50754F7D6E7DAF750D542AAC
:101F3000752E6D0E64CD7D509E7596546D2F64CDBB
:101F40007570754F64ED6D0E85D1756F546B6D0DA9
:101F50005CCC6D0E5CCD546B650D7DF1758F652E7F
:101F60005D0D654E6D6F54AC33A82326444A654E13
:101F700054AB4C4A43A81A0208807AE59AE592428B
:101F8000C367A26499E299E29180A202A222B2847C
:101F9000AA4391A191819161896089609181894071
:101FA00089619182918299A3916291829183894101
:101FB00081218942812281217921790181428143D4
:101FC000792270C168A070C07901790170E1710156
:101FD000814379027922812270A170A081447143EA
:101FE00048A1304048E26964690368E1690258C168
:101FF00058E16102692369436943610350A150A11B
:1020000058E250C248C148C1510240C1750A6CA88B
:102010005C257D0953E464457D088D6A8D49A60CD5
:10202000A64C852795A8A64BA5CA954A2A0032A595
:10203000646D75508E328E32965264CC96729ED4F8
:1020400085F196738E329EB49673A6F68E12861222
:102050008E32AF16AF57A6F59EB496536D2E64ED33
:10206000A6F575B05CED440A861275B0650E654E36
:1020700044095D0D5CEC4C8B338775AF650D4C8B63
:102080004C8B54AB5D0C5CEC656E75D06D6F5D0D6B
:102090003C093C095D0C861085B0330701413328AB
:1020A000442B442A54AB54CC442A43E94C0A4C0AEE
:1020B0004C09336722E533462B262B262B26338704
:1020C000544A546A4C0854693BC733653B66332510
:1020D0004BC75C694BC65C8864A9750A64A85C67D9
:1020E0005C475C465C465C255C0564456C8674C751
:1020F00064666CA6852874C78508958B850C00A03E
:1021000032A6BF196CAE8DF29E539E528DD164AC37
:102110007D2F53EA648D85716CEF7D5085B17D9183
:102120006D0E4C2B64CD6D2E7DB06D2E754F6D0EEA
:10213000758F5C8C4C4A5CCD652E652E652E654E88
:102140006D8F5CED444A33A833A854CC6D6F54CDE9
:1021500033A86D4F752F2A6421408347C46AA2C3F8
:10216000AAA3B305A262BAC4B283B283B263A202C5
:1021700099C19160916091819181A1E2A1E399C29D
:1021800091819182916199829141892191628941E4
:10219000896291838962896289628963790178E1C0
:1021A00070A070E179227922790270E168A070C094
:1021B000812278E178E2814270C178E28144714302
:1021C00050E2304048A1694471027102690260E145
:1021D0006101610158C158C158C158C15080508136
:1021E00058C258E250C25902592350E264476CA8C1
:1021F00064667CE864666CA76C867CE785288D49FC
:102200008D899E0B95C995889DAA9D8C3A823AC569
:1022100074CE85B29E93A6F4AF159EB496728611C5
:102220008E3296737DB196339E948E339EB49653C0
:102230007DD19E949E949694A6F58E1286128E332E
:102240009ED59694650E6D4F7DD196947DF15CED93
:10225000652E6D8F54CB54AB442A6D8F652E5CED8B
:102260006D6E652D654D5CEC54CC654F6D6F54EC17
:102270004C8B6D8F8E928E72754F43690181438AAC
:10228000650F54CD54CC654E4C6B3BA833874C0A3C
:10229000440933673B883B88336743C93BA83BA865
:1022A00033662B253B8643E744074C285449542882
:1022B000544843C63B646488542764885C464BE5B5
:1022C00054055C4664875C465C456CA77D0874A633
:1022D00074A76CA67D0874C753C28D2A7CAA00E03F
:1022E0002A6595D37D3195F395F29E538DB17D305E
:1022F0008D9195D295D28D917D305C4D750F4C0BA3
:10230000544C6CEE64CD64CD64CD7D907DB0650D94
:10231000756F4C2A6D2E7DD0652E54AC75D06D8FA7
:1023200054AB4C6B444A33C8444A444A444B3BE99F
:10233000440A75905C6C19E321206263B3C7BBA6A5
:10234000A2A2AAA3BB25B2C3AA62B2A3A20191A072
:1023500099C199C199E299E2916099A2918199A25A
:10236000918199A2916199828921890091829182BA
:1023700091A299A39162892181218122810178E032
:1023800070C07901814281218122812170E079012F
:102390008122688070A08142790189438964710338
:1023A00048C130204080612370E2812270E160C02A
:1023B00060C060A0588058A060E158C158C158E181
:1023C00058A150A158C16143612350E25C265BE5EE
:1023D0008DAB6CA77D087D296C867CE77CE874A7B3
:1023E00064457CE795A995898D29A5AD3AC3432716
:1023F0007D308DF296529EB48E326D2E85F18E32E6
:10240000967385D17D908E128E12754F8E329653B3
:1024100096739E949EB4A6F5B7579E9496737DB01E
:102420006D2F64EE64ED7D907DB05CCD6D4F650DDC
:10243000442A5D0D652D5CEC5CEC6D6E5D0D5CEC15
:102440006D6E6D8E5D0C54CC6D8F652E4CAC446AF8
:1024500075B075D07E10654E4C2A4BEA012132E8EA
:10246000546D444B446A4C8B444A440933A733A708
:102470003BA83BC83BC93BC843E93BA843C83BC852
:1024800043E833664C084C284C285CAA85AE4C289F
:102490003B8554484C066D0A64C954066CC87509DE
:1024A0005C676CA775085C2554046C8674A77D086E
:1024B0006C86856974A685287CE79DCC850B0920F0
:1024C0002224BEF8B6B89E158D728D92644D7CCFD5
:1024D00074AF6C6E6C4E6C4D74AF74AE6C8E750FC9
:1024E00085B17D91963385D17DB085D07DD07DB08D
:1024F0006D2E64ED6D2E650D75D06D6F5CED3C0934
:102500004C8B54AC5D0D4C6A3BE94C8B54CD5CED6F
:10251000650E75507530220418E05A22BC49B38408
:10252000AAE2B303B303A261AAA3A20199A0B24392
:10253000B263AA23AA4399C1918091A199A1A20350
:10254000918199A2916199A280E09141916199A2B2
:102550009141812091629182894289228101892160
:1025600081218101810181218122896278E08101BB
:10257000810278A07902814278E18943814368E24F
:1025800048C1304048C2694378E278C168A068E039
:1025900068E168C060C06101610158E160E1610209
:1025A00058A158A158E150A150A150A153A44BA348
:1025B00064257CE86CA785499DEC85287CA78D293E
:1025C0008508852895C99DEBADECADEE42C42A4344
:1025D000540B85B19673754E9E7364CC9EB48E1267
:1025E00085F18E11752E754F8E1285D1756F8E12F5
:1025F0009E94A6F5AF37B757A6F59ED59673650E90
:1026000064CD7DD15C8C756F5CCD4C4B650E8612B4
:1026100054AB4C49650C652D4C8A652E5D0D75AF2C
:102620006D8F5CEC5D0C652D75AF652E5D4E5CEDC0
:102630007DF05D2D550C5D0C6D2E4BEA09A2438A91
:10264000440B446B4CAB4CCB340933A833C833A791
:1026500033A7548B4C6A3BE84C4B44094409544A19
:102660004C094C294C085C89336543E764CA4BE745
:10267000544864A954486CEA7D6B64A86CE964A86A
:102680005C466CC87D497D287D698D8A74C7854903
:1026900095CB856A8549852885289DCB8D4C092059
:1026A0002A24DFDC9DD5640E4B2A2A06198421C515
:1026B0001143090219631983112242E8640C95D36E
:1026C000AE958DD2961285D17D907D8F650D756FFB
:1026D0007DB06D2E548B548B6D4E650D54AC4C8B70
:1026E000758F6D8F4C8B4C8B54AC5D0D654E6D6F43
:1026F000548C5CCD64CE222408A05A23D50BAB6346
:10270000B343B343AAE3B2E3AA82A221B284AA43A9
:10271000B284AA22A1E199E199C191A191A1AA440F
:10272000A1E291619140A1C399619962998299C294
:1027300099A29141914199A399A3916289428942B9
:1027400089218101810181018101810178E0892252
:10275000894280E18102790179018101810271025E
:102760005902388050E2692381028902810170E1B7
:1027700068C068C068E1610160E158C058C061226A
:1027800060E158C160E2610260E258C15C056C66BC
:102790004B6264257D087D087CE774A67CA77CE8F5
:1027A00095AA95CB9DEBAE4CB66FB62F42C332C403
:1027B000646C7D70754E7DAFAEF57D90A6D4756F5F
:1027C0007D8F754F85D164CD6CEE85B0963385B124
:1027D0008E129E947D90757096538E1296537DB096
:1027E00064EE8E336D2E6D4F64CD759085F18E52F3
:1027F0006D4E54AB548A5CCC4429652D6D8F652D8C
:1028000054CB54CB6D8E5CEC444A54CC658F5D2D1B
:102810006D4E5CEC5D4D5D2C7DB06D0E016253EC38
:102820006D50446B550D4CEC4CCC3C2933C733C731
:102830003BE8444A33C733C844093BC84409548B76
:102840005CAB43E74C283365334443C64C2743C64F
:1028500043A53B845C8864E964A85C47648853E5CD
:102860006487856B7D497D28858A95CA854995CB86
:102870008D6A8569854974A67D079DAB84EB090047
:102880003286C6F94AEA0040196419243A495B4D78
:10289000636D5B2B29A54A89530A2184218442E870
:1028A00074AE8571750E7D90754E7DB0758F6D4ED1
:1028B0007DB06D2E4C2A650D6D4E5CED54AB6D4EAA
:1028C000758F5CCC54CB5CEC4C6A5CEC75AF3C090E
:1028D00033A75C8C5C6D2A6508806AA5C489AB83CC
:1028E000BBA4A2E2AAC2AAE3A283BB05B28499C197
:1028F000AA22AA22A202A222A1E2A1E2AA23AA4417
:10290000A1E291409981A1E3A9C3A1E3B265A1E34A
:10291000AA0499A2890091419982912191629162C0
:10292000914289218901894289428100810089215E
:10293000890280E189228101894278E078E1794346
:10294000618438A048E271438943914380E178C1B2
:1029500070A070C068C060C060E060E160E160E1EC
:1029600058A060A168E160C160A168E253A4642539
:102970006C6664455C046C6653C364246C456C25CA
:1029800085086C866C648528956AA5AD3AA34326B4
:102990007D2F85B185D18E3296325C6B85F17D8F2E
:1029A0007D907D90752E6D0E6D2E9E7385F27DB19E
:1029B000963396337D9085D19EB585D185D19E94F1
:1029C00096738E325CAD85F1546C759075B086113E
:1029D0005CEC652D54AB548A5CEC7DF07E105D0C94
:1029E00054AB5D0C5D2D446A442A54CC4C8B54ECA2
:1029F0004C8B54AB75EF7E10756F7D5001003B69B9
:102A00006D504C8C448B4CEC448B3C293C29442924
:102A100044293C0833A73BE844094429546A4C4AFA
:102A2000546A2B2443E75CA943E754485C8843A5D8
:102A30004C065427752B752B64A954275C475C27DB
:102A40005C266CC87D297D2885897D0864248D6974
:102A50008D698549854974C68D48A5EC954D1980C9
:102A600021C3638C00A23208A575A535A555C659AA
:102A7000D69ABDD76B4D7BCFAD758C703A07008071
:102A80002A055BCB7D2F85B06D0D8E117D8F7DD09E
:102A9000758F756F6D4E7DF1652D650D652D6D6FB3
:102AA000654E54AB54AB4C6A444A54CB652D4C8AAA
:102AB0003BC8650E755032A608A07306BC88A36299
:102AC000A2E1A2C1AB03B325B2E4B2C4A22399C26E
:102AD000AA43AA42A222A20199E1AA43AA23AA23B5
:102AE000AA2399A1A9E39981A1A2A9E3A1C2914036
:102AF00099A299828920914199829962912191416B
:102B000091428920890191629162810080C080E0B8
:102B100088C1890291638922892178C081028163F9
:102B20006164306048C1716489639122890280C107
:102B300078C178E170E170E16901690160E160C02C
:102B400060A068E1710260A1608071025BE57CE8D1
:102B500064457D086C8674A67CE774C67CC78528AE
:102B600085286C6574C695897C676BE632622A633A
:102B70006CAD8591963285B064CC43C985D085F122
:102B80006D2E8E32752E754F6D0E85F1752F752F4A
:102B90009E9496339E94A6D59E94969496948E3346
:102BA0005CAC7DB18E126D2F544B7590759085F194
:102BB0005CCC652D54AB54CB650C7DF075D05CEBD3
:102BC0004C6A54EB54CB652D6D8F54CC54ED652E6F
:102BD0004C6B4C8A75EF86516D4E859100A02AA7EB
:102BE0005CAE446C34294CCB3C2933C83C294C8A1C
:102BF00033E733A73C083BE8440943E843C85CABF0
:102C000064EB4C283B865CAA336543C56D0A4C06D1
:102C10005C686CEA752B64685C4753E64BA65C27DE
:102C20005BE653E5854A95AB7D087D2874A68D69E2
:102C300095AA7D2874C67D077CC6A5EC952D21C17B
:102C40001922216442498C72DEFCF79ED67ABDB708
:102C5000C5F8B555A4D3A4F48C318C315ACB214599
:102C600008C21163644D9E747D6FA6F585D185F110
:102C700096736D4E5CCC75B054AB4C8B5CED5CEDDB
:102C80005CCC652D4C4A2B464C8B548A4C8A6D6D1E
:102C90005CAB7DB085D2434808C06AC5BC67AB82D7
:102CA0009260AB43BBA6BB65AAC4AAA4B285B264BA
:102CB000B2A4AA63AA62A221A202A22299C1AA4333
:102CC000B264A1E1B244A9E2A1A29982A9E2996108
:102CD000A1C2A1A291409982994188E091209121BD
:102CE00091418921890091419141810080C080E01A
:102CF00088C08902892280C080C089219143814394
:102D00005922304040A061428122890189228101FB
:102D100078E1790179227922710168E168C068E17E
:102D200068E168E1710168E168E17122434364464A
:102D30005C04852974C76C8595CA852874A67CC7F0
:102D40006424644474A57CE784E98CEA32823AE521
:102D50006CAD8DF28E118E117D6F542A9E7385F1AC
:102D600075708E128DF185D16D0E752F85D1752FF1
:102D70008E339E749EB585D16D2F85F296537DB1AD
:102D800064EE85F264EE5CAC546C75906D2E9EF52D
:102D90005CAC54AB5CCB6D6D75AF75AF86305D0CC4
:102DA000444944495D0C75CF652D54CC6D8F75B089
:102DB000652D6D8E8E926DAE5CAC8DF200C02AA733
:102DC00064EF3C0A3C4A34494CAB444933C744495C
:102DD0003C0833C74C493BE83BA73BC74408548AEF
:102DE00064CB5CAA544854895C895CA96CEA64A8E9
:102DF0004C0654276CEA53E55C2764685C0764283A
:102E000064485BC674A87CE874A78D698D6995A930
:102E10008D697D076C8474C56C44954A7C8A194021
:102E20001922214494B3C639DEBAE6BBBD759C9223
:102E3000B535B5359C939C939C939C537B6F738F56
:102E4000422811032A258D917D70967385D16D4F8F
:102E50007DD05CAC650D758F54AC5CCC6D8F650D11
:102E6000654E5CEC3BC844094C6A54AB54AB75AE40
:102E70006D8E86117570436910E05A43BCA8C44535
:102E8000AB63B344C3E7AAE39A41A263A22399E3E5
:102E9000AA43BAC4B2C4AA62B283AA42A1E1AA42B6
:102EA000B243A1C1B243BA65B2249981B224A1C28E
:102EB000AA03A1A29961A1A291419100996299628C
:102EC000996199629141914191419141892080E0BC
:102ED00088C088E29143890288C09142916381430E
:102EE0005922304038A06122792180E180E1892295
:102EF0008942812270E170C070E170E17102792233
:102F0000710268C168E1710170E271025BE54B63B7
:102F100064056C667CE77D287CE65C037485852807
:102F200074A66C856CA58D68AE2D84C92A203AE5FF
:102F300085707D907D6F85F19E737D907D6F754F5F
:102F40009E949E748E1296537DB085B0A6B59E74E5
:102F50008DF28E1285D275706D2F85D18E538E5362
:102F60008E126D0E64ED85D17DB185D1754F8E7356
:102F70006D6E650C4C8A86107E10650C654D54CBC9
:102F800054EB5CEB656D6D8E4C6A6D6E75D0652E85
:102F90006D2E863175EF5D2C7DB07D7001422A87E4
:102FA00064CF4C6C448B3C8A4CCC4C6A33C744286D
:102FB00054CB650C5D0C548A44295CAB64CB4C2823
:102FC00054494C2843E74C2843E743C643C55C4774
:102FD0006CC9750A7D2A6CC974EB6C8974AA74AAD1
:102FE00074AA74AA7CEA74C88D6A8D496C85852799
:102FF00095CA85478D8885478D47956A8CEC10C0AA
:1030000021437BEF9CB3C5F8BD969C51A4919C2FA6
:10301000ACD2D5F7B535A4B4ACB593F272EF6B0E64
:103020005AAC19250902644E859185F264CD650D6F
:10303000756F8E326D6F4C4A5CCC650D6D8F5CED9B
:103040005CEC4C6A33A75CEC6D6E652D7DF07DF019
:103050004429548B6D2E3B2710E049C1C4C9B3E409
:10306000AB63AB03C3E7C386BB25A26399E291615F
:10307000A202B2A4AA83AA62C325C325AA42A2229D
:10308000AA02A1E1A1C1B223B224A9E3AA039981B2
:10309000A9E2A1A29960A16199419961A182996176
:1030A00099619961916191209120916189208900B4
:1030B00091029943A18499639121910191428143A5
:1030C0006163308038A06142794280E080E18922EA
:1030D0009163894278E170C070E17922812279425E
:1030E000792271027922710268C168E164265BC4A9
:1030F000642585297CC75C046C8585488D688D486E
:1031000074C574C56C847485956A7CA83AA23AE546
:10311000750F8DF28E126D2E9E738DF185B085D157
:103120009EB49E74A6B4963385B0A6D59E94AF1671
:10313000A6F6965364CE7DB085D18E537DB196535D
:10314000967485D185F185D185F296947D90652E12
:10315000650D8E51652D75AE654D5D0C7E1054CBA1
:103160003C0854EB54AB44494C6A6D8F6D6F656EEF
:103170005CCC7DF07E1075CF9EB37D4F0121222562
:103180006D1054CD4CCC658F656E44492B864C8AAE
:10319000652C6D6E5CEC5CCB5CCB546A5CCB4C49B3
:1031A0004C484407336554484C07336464A8754A57
:1031B0008DCD7D4C6468854C8D6E7CEC6C2A4B46C5
:1031C0005BC86C2984EC8D0C8D2CAE2E84E88508B0
:1031D000A62C9DEBA64CA62B9DC9A60C952D08A050
:1031E0002944C639A514BDB7C5D7A4B293EF9C2F07
:1031F000ACD2C596C577CD9893F272AE72CF7B50A4
:103200007B9031A711447D119E759EB56D2E861160
:103210008E329EB47DD175B06D6F758F86115CCC8A
:103220006D4E44294C6A75AF4C6A54AB6D6E4CAB15
:103230003BE85CEC8E733B2700806284C4A9BC052C
:10324000A322AB44CBE7D407BB65AAA3BB06AA6401
:10325000AA42A222A241BB04DBC8DBC8BAE5AA226B
:10326000A201AA229980AA02B224A9E3A1A199806D
:10327000B223A1C29940A181994199419941996193
:10328000994191209120912089209140892091415C
:10329000A1A49963994391019942912291228102BB
:1032A0006143388038A059227942810189428101E5
:1032B00080E1812189428942812281018102790252
:1032C00078E170E17902712268C168C1642674C82E
:1032D0007D09852874C7852895898D898D888526DF
:1032E000852685266C847485AE2D84E922003AC536
:1032F000646D6CCE754F85B08DF296539E9385D1DB
:103300007D908E1296328E128E128E327D6F963393
:103310009E94963385F29673A6F685D18E12AF16DB
:103320009EB485D19653A6F59EB485F1650E5CCC0E
:1033300064ED86315CEC5CCB650C75AF7E304C691E
:1033400044495D0C5D2C4C8A5D2D6D8F54EC654EAF
:10335000758F75CF6DAF8E929EB3859000A022457C
:1033600064EF54AD2BC84CCB5D0D4C6A44494429E5
:103370004C694449548A4C6A3BA7546A756E650B84
:10338000440733445447544764C95C87754964A76C
:103390005C478D8E74CC4B485369328619C3090043
:1033A000198211411100322442C663C884AAB64F63
:1033B000B66F8D4A9DEB9DCA7CE68D08B61008C09D
:1033C00039E6C618C5D7E6FBB555ACD38BEE9430BD
:1033D000BD35BD36BD16B4F693B2835093B27B5063
:1033E0007B9031C809038552AEF7B757861285D155
:1033F00086127DB096B496B36D6F652D6D8F654D59
:10340000652D4449652D5CEC3BE85CCC4C4A3C099D
:103410005D2D7E1086324BC908C06264CCEBAB6474
:103420009AE2A3039AA2DC89BB4491E0C345CB8610
:10343000BAE3AA62BAE4BAC3AA62BAE4C2E5B26362
:10344000AA42BAA4AA02A9E291409140AA02A9E123
:10345000A9E2A9E2A9C2B203A9A2A1829920996115
:1034600099419981914091409160890089009983A7
:10347000998391429101912291429983A1A4892239
:103480006963386040806983816280E0890188E1F6
:1034900080E189218922892280E178A078C170C0E9
:1034A00070E170C168A07101688068A06C876C874A
:1034B0006C4585289DEC8D8A7D07958995C9A64A1E
:1034C00095C88D678D678507748674472A213B06EA
:1034D00085717D506D0E64CC542A754FB756754E6C
:1034E0007DB0AF168DF18E128E1285B085F19E746F
:1034F0008DF28E128E12A6D596737DB196739E9420
:1035000085D19673B7777DB15CAD5CAC7DD1967398
:10351000969396734C6A6D4E7DCF96B27E104CAAF0
:103520003C285D0C44494C8A6D8F4CAB446A54CCAA
:103530008611654D7E5196D47DB09E53096111C3AD
:103540006D1054AD4CAC6DAF54EC4C8B4C8A236574
:1035500033C74428548A442933873BA744296D4CF8
:103560005CA9544754484BE6752A64C86D29752AEE
:103570007D0C74AC3285220519833AA863CD534B78
:103580007C707C2F52EA192308C0112132437C6AD7
:10359000B6519D8D84C8AE4D95889569ADEF1920C3
:1035A00031C6C618CE38C5F7CE18BD96A492B5144C
:1035B000A472A473AC9593B29BD393B28B9293F302
:1035C000735039E808E37CF0BF58AF1685F26D2FD1
:1035D00064ED8E328E3285F17DF06D4E6D8F7DF013
:1035E00054CB54AB75CF652D548B4C6A4C8B7E31CC
:1035F00075CF5D2C5D0D3B4708A04160CCCBB3A5DA
:10360000A3038A409AC2D448CC06CBA5C344C323A3
:10361000CB65B2A2AA61BAE3B2C3BAC3CB25C2E4F6
:10362000AA21BAA4C2A5A9E2A1A1B223BA63AA029F
:1036300099609960A181A9A2A182A161990088C025
:103640009920A9E2A1A19981914088E0996299828B
:1036500099629962A1A3A9C491219101A9A4894267
:1036600069224080408069228963912188E1892113
:103670008921890188E180C088C1890280E189228D
:10368000812278E17902790270A078E16C8774A7D1
:103690006C6674C78D497D087D0795CA8D888546FF
:1036A00095E895E885278D688D499D8C43045BCA14
:1036B000BF388DF36CEE6CED752F3347546BAF361E
:1036C0007DB0AF369E7396328DF16D0EAEF59E9441
:1036D0007D909E948E3285F1967496538E327DB095
:1036E00064ED64ED9E947DD15C8C5C8C9693969396
:1036F00085F1758F4C4A8E3175CF86316D6E5CECDD
:103700005CEB652D446A656E7E106D6E6DAF7DF06D
:103710005CEC654D96D3865186118DB111A2016284
:103720006D1065504CCC5D4D3C0933A73C082BA671
:103730004C4954AB442933863BE85CAB5CCB5469C1
:103740003BA54C276D0B6CEA8DED43C46CC9A6916B
:103750007CEC19A109213A677C90A5B5C6B9DF3C7C
:10376000E77DE77DDEFBBE17CE99AD9432051920CB
:1037700029E3954E954C8D4A84E784E884EB11004B
:103780004A88E73CBDF7BDD7CE59ACF49C72ACD4A7
:10379000BD56B4D59C139BF39BD39BD3AC96B4F787
:1037A00094334A6A00616C6FCFDA9EB57DB085F1C3
:1037B0007590A6F5756F6D4E652D8E528E727DD00B
:1037C0006D6E6D4E75AF758F4C4A54AB75D054EC21
:1037D00033C76DAE7DF164AD006041A0CCEBDD0A76
:1037E000A3028220AB23CC06DC88D406C364AAC122
:1037F000BB03CB84C344B2C2B2A2C324DBC7DBC7C2
:10380000BA82C2C4D326B263A9E1A1C1A1C1A1C138
:103810009980A1819961A161A9A2A161A98299411F
:103820009940A1A2A9E2A9E399619100A1829961BD
:10383000A1A3A9C3A162996288C09942A9A499834E
:103840007122404048A07143918388E188C088E09C
:1038500088C080C088E188E188E190E188E1890240
:1038600089438122812278E178C178C174C87D08BA
:1038700074C76C8674C785288D69A62B95EA8D87D9
:103880008D877D05850685078D28B66F3AC3642B25
:10389000BF58646D7D708DF1750E9633542AB756FE
:1038A0009E94754F64CD754F9E93B757A6D58E32B3
:1038B00085F17D90546C4C2A756F8E12756F7DD199
:1038C00096947D908E125CCD6D2EAF169EB45CCC1E
:1038D0003BC864ED6D6E6D4E650D5CCB444A54ABD8
:1038E0006D6E6D8E652D5D2D54CC654E7E11654DD2
:1038F0005CEC8631865186319E93859001410100B2
:103900007D925CCE654E656E33A8234544494C6A72
:103910003BE83BE83BC72B663BC84408548A5489C4
:103920005CA964EA64A95C887D4B5C67858D6C8AC0
:10393000094000A05B8BBE77DF7CD73BD71BCEDA7C
:10394000CE99CE99DF1BD6DA9D33D6F9844F4A88BB
:10395000214200807409B630AE0EAE0E8CCC00A0B1
:103960004AA9B5D6CE79CE58C5F7B576ACF49C52F7
:103970009C32CD99C5789C137AAE6A4D7ACF628D10
:103980005A4C422909034B6AAED7A6F6AF167D9072
:103990007DB07DD1650D8E327DB08E5264ED85F1A6
:1039A0006D4E758F8611548A5CCB6D6E5CCC4C6A03
:1039B0005D2C654D6D6F438819203940C4CABC2603
:1039C000BC059AA0D467D467C3C5BB83C363BB439C
:1039D000CBA4DC27DC27C364B2C2C303BAE3B28240
:1039E000AA21BA82C2A4BA83AA01A1A0996099604F
:1039F0009940A181A9C2B224BA24A982A161B1C30C
:103A0000A9C2A9A2A181A1A2A1A2A1A2B204994185
:103A10009921A9A3A162A1829921A183B1C4A1C4C2
:103A20007963400040406923916391019922994252
:103A3000912289018901910190E2910288E188E156
:103A4000890280E270A070A178C178C16CA67D283F
:103A500074C76C866C86644564249DEA9DEA8D6714
:103A600095A895C895A895A99DAA954B11805BC965
:103A70007D109E759633B7776CCE754F752E6D2E73
:103A80005C8C6D0E5C8C9632754F9E9485B06D0E7D
:103A90007D90A6F585D196737DD05CAC7D90A6D542
:103AA000AF166D2E548B5CCC8611544B650D5CACFF
:103AB000546B7DD06D6E758F654E54AB4C8B5CCC6A
:103AC0006D8F75AF652D4C6A4C6A6D8F758F54ABD9
:103AD0007DAF9692656E654E96938DF119E300C0A9
:103AE00043AA75915D0D34082B663BE84C6A4C493E
:103AF00043E944094C4A33A7336633663B863BC7E8
:103B00003B85544843C67D6C752A6CC98D6D2A422D
:103B100009006BECDF5AC698BE36DF3ADF1ACEB822
:103B2000BDF5C637E73AD6988C6FB5B4BE16F7BD6B
:103B3000D6DA6BAC21626BEAC6B39D8F5B2721821C
:103B400031E58450CE98AD549CD3A514AD158BF0BF
:103B50007B2F9C33AC759BF49BB3AC55A43493F290
:103B600094534A6A00C2642EBF58BFB99E945CAC9D
:103B70009EB48E32756F7DB09E9464ED6D4E7DB0B7
:103B800064ED756E546A4C297DAF5CCB44084C6A79
:103B90007E308E926D4E4BC921603100C4CAB3E4B1
:103BA000C446BBE4CC46C3E5AB22B342B322C3A4B4
:103BB000DC67C384BB02CBA4CB64C344AA40B2611C
:103BC000CB24D366C2A3B262A1C099609960A1C19F
:103BD00099609140A9C2A1A2A1819941A9A2A9A2DB
:103BE000A181A9A299409920A161A161992088E0B1
:103BF0009120A1A299619962912088E0910191633D
:103C000079A44860404060E1810188E1994299428D
:103C1000910188C088C088E190E190E290E280C183
:103C20007880708070A078E16860706064655C0482
:103C30005C046C658528AE6D958A6C6574E695C9E3
:103C4000852674A47CC585279DAABEB04B253284E9
:103C50005C2C8E1485D28E126CEEA6B5AF367D909C
:103C6000754F6D2E64CD85D1A6D48E1285D04C0AA9
:103C70006CED754F544B5C8B8E126D4E85F185F15A
:103C80007DD085D18E1264ED8611650D5CCC8E528F
:103C90006D4E64ED6D6E758F7DD05CCC75AF5CEC58
:103CA0005D0D652D54AB3BE83BE86D6E6D8F4C6A46
:103CB000650D4C4A654E86318E31A6943B2800C076
:103CC0005C6E650F33C85D4D33C833A74C6A54CB67
:103CD0005CEC3367336644085CCB5CCB54494408E6
:103CE00054486D0B7D8C750A6CE97D4C53C80900F6
:103CF0004AC7FFFDE75BD6B9BE16C657C657A53201
:103D000094B1C616D6B9C616C637EF9CFFFED6B913
:103D10008430D6BA6B6C008019416389AD92214220
:103D200010E2AD95CE98AD54B596C5F8AD15941288
:103D30007B2FA474AC7583519392831059EB51EA95
:103D4000526B2966090295B3CFBAA6F696537DB099
:103D50009673861196739E948E127DB09EB443C95D
:103D6000650D754E44096D4E650C4C6A3BC754AAEF
:103D70006DAE44494C2A2AC629A14180C4C9B3C3A7
:103D8000D4C7CC86C404AB62A2C0B383D426DC46BD
:103D9000D405C3A4CBA4C363BAE2C344C303C3031F
:103DA000CB45D365C2E4BAA3B242BA63A9E1B22358
:103DB000AA03AA02B2249940992090E09940A9A2AE
:103DC000A9C2BA24BA03A981990090C09920A181FF
:103DD000A1A2996088E089009120910090C089217A
:103DE00068E138004880696391A491229942912149
:103DF00088E188E18901910191029101910288E1B4
:103E00008902890278E18122706070604BA25C04B3
:103E10006C656C8674C68548850895AA95A98D88B9
:103E200085479E09AE6C95899549B64F53862223E6
:103E3000AEB66CCF43CA9633BF589E74B737AF3611
:103E40009E9464CD4BEA64CD7D6F85B0756F85D14E
:103E500085B064ED7DB06D2E5CCC8611AF367D9063
:103E60005CAC86116D4E758F85F185F18E32758F44
:103E7000756F85F07DD08E527DF0652D7DD075AF4C
:103E80007DD06D6E6D4E758F652D5CEC4C6A6D4E00
:103E90004409546A8E5286318E516CCC2A8500C0FA
:103EA0005C6E440B33E94CAB444A44294C8A4C29A0
:103EB0004C4A3BC83BC84C49548A4C295C8A6D0C1F
:103EC00064EB64EA43A543846CA9AE922A4319418A
:103ED0008CD0E73BCE58C5F7E73CA5137BCE9CD2F0
:103EE0009CD27B8EB555BD96D679A5349490B57489
:103EF000BDB6DEDBDEDBBDD73A2600203A063A0748
:103F000031C6CE59C617D6B9BDD78C51A4F4C5B8A1
:103F100083B18BD2AC957B1072AE835093D27B4F22
:103F20004A4A428A19C57D31C7DA96947DB07DB080
:103F3000A6F5BF9885F185B164AD9633754F64AC35
:103F400096327DAF85F0756E546A4C495CEC6D8E8F
:103F50008E917DCF4C2A3B2821614180B427C446F5
:103F6000ED69BBE3CC66CC45D486C3C4C3C4D426B8
:103F7000D426C3A4B2E1B2E1C384BB03AA60BAC22F
:103F8000B282A220BA82CB25BAA3B242D347BA6387
:103F9000B244A1A1A1819960994099209920B1E2F0
:103FA000BA03BA03B1E3A9A2A120A9A2A9C2A9C2D6
:103FB000A18199409981996190E091009941A1C4B2
:103FC00089E548A0406060E18143912291428921C6
:103FD0008921892180E080E088E188E188C180E151
:103FE000916389426880688070A078E16CC76CA694
:103FF000854885487D0774C66C657D07854874C50E
:104000006C8353C0748495A99D89744721E02A6408
:1040100074EF5C2D85D27DB1A695963385B17D90E8
:104020007DB09EB49633754F8E32754E5CAC8E1259
:10403000754E7D90754F64ED43E964ED85D144097B
:10404000650D969386117DB07DD0546B6D4E650DD8
:10405000756F758F44095CCC44094C4A652E6D4ED2
:10406000758F6D6F5CEC4C8B652D4C4A4C6B7DD025
:10407000650D756E54CB5CEC7DAF4BE911E2012010
:104080004BCB7DB2446B6DAF3C294429548B440922
:1040900033875CAC546A338633663BC75CCB1241D2
:1040A0001A8154273B435C6895CD74AB008029C4CA
:1040B000FFFFD699B576BD97D69A9CD3D679FFDE09
:1040C000DE79C5F8BD97C5D8BD97A4F4CE37CE58D4
:1040D000D679D69A9472CE59634C5B0B000010A22D
:1040E00018C3B596FFFFEF5CCE58BDD7BD979C9324
:1040F0007B4F8BD1A454B4D78B7172CD7B4F7B8F08
:104100005B0C3A6819E55C4D7D705CAC548B8E524B
:104110009694967364AD8DF2AF165C4C544B64CD9F
:104120008E119EB4756F4C4A546A4C49652D7DEFD3
:1041300054CA3BE84C0A32E7218139409BA5CC8622
:10414000AB62D4C6CC65DD08BBE4B362D445E4C839
:10415000E4A8DC46DC47D406D3C5E468BAE3A24051
:10416000AA40B282CB24BAA3A200BA83B222A1A0F1
:10417000CAE6A1C2A181A9C2A181C265BA44A9812E
:1041800099209900A981BA04A961A982A9A2A16173
:10419000A161A9A2C286A9C288C09961A9A39142BE
:1041A000798448804880692278E18901914280E0E1
:1041B00078C080E080E08901912288E188C089018F
:1041C0008922812278E170C070C178E15C4574E792
:1041D0008D6985487CE77CC6850795898548A64B0F
:1041E000A62AA62A95A99DC985079DAC5BA73AC6B4
:1041F0007D109E5596548E127D708E1285F285D15B
:10420000544B64CD9E948DF1756F8DF1756F85B0B3
:10421000963285D185D09E9396937DD085D1A6D5B3
:1042200085F19EB4AF168E5264ED8E5285D064ED4A
:104230007D8F64EC6D4E548B5CCC652D6D8F652E3F
:10424000863175AF44093BE85CCC548B64ED6D4E10
:1042500064EC758F758E96D39EB3BF97646D010025
:104260006CAE5CAD442A3C095D0D4C8B548B652DC6
:104270005CCC4C2A3BC83B87440843E74C08754D4F
:1042800064CA752B856C750A854B8D4D00604AC9D3
:10429000EF9DCE39DEBBC5B7BD96CE38BDB6AD34C9
:1042A000A4D2CE38DE79D659BD96AD349471A4F33C
:1042B000BDD6D659C5F7BDB6B5B5FFFEC6384A4915
:1042C000000020E49CD3F77DBDB65ACB83CFAD155B
:1042D000C5989C53ACB5B4F6BD169C7394319472DA
:1042E0004A8919843AC895F364CD9EB4C7F98612F9
:1042F00085F27DB185B1A69564AD4BEA6CEE8DF18A
:10430000A6D46D2E4C2A43E83BA75CEC54AA6D4D15
:10431000758E756EB737642C008041A1B4688AA091
:10432000C424BC04D4A6E528C425D4A6CC25BB62ED
:10433000CC25D426D426BB42A260B2C1B2E2AA8167
:10434000B2C2C2E3B2A2DBC7F48AAA21A1E1CB06C2
:10435000CB0699609100A181BA65CAE6A181992036
:10436000A140A16199009900A961B1C39920910070
:10437000B1E3B1E3994190E09920A982A142912152
:10438000818348804880716399A4A18399638921BE
:1043900089018921810080E08901912288E180E101
:1043A0008101810178C078E1688078E14BA274E7EF
:1043B00095AA8DAA8D8974C664036C447CE695C960
:1043C0009DE9AE6BBEEE9DC9850784E932832A4420
:1043D0008551A69685D2A6D5961364CEB757C7D970
:1043E00064ED752F8E123347542AA6D48DF1542ACA
:1043F0004C2A4C0A64CD4C2A6D4E758F6D4E7DB0A3
:104400006D2E7DD06D2E8E5285F14C4A6D2E8E32E2
:104410007DAF7DB04C6B86117DF086317E115CECFA
:104420006D6F75D054AB548B5CEC5CCC546B650DEC
:104430009EB3758F652DAF7696B3B7566C8D0080A1
:1044400022664C0B442954EC54EC5CEC4C8B440934
:10445000440944092B463B87546954694C285C6ADB
:104460006D0B7D4C750A5C4674C9640808C06B8C82
:10447000E71BBDD7C5B7BD97CE18C5D77B6D83EFFA
:10448000BD95C5969431A492CE18DE7A8C108C100E
:10449000A4F3A4D3CE38C617B5B5D698FFFEFFBE99
:1044A0007BAF084200005AAAD679E6DBD679C5B7B9
:1044B000C5B8B5168BF28BD1941283B0736E52AA25
:1044C0003207114374AF8DF39EB4AF56B77743E90B
:1044D0006CEE9633AEF69E748E125C8D5C6CA6D537
:1044E000965364CD546B5CCC8E528610652C650C53
:1044F000758E64EC5C8D4349190041A1B468ABC36F
:10450000D4A7C445D486D4A6CC86CC45BBC3BBA314
:10451000CC25D445D446D426BB63AAA0CBA5D3C50D
:10452000C323D385E407CB44BAE3BAA2E3E8A9E105
:1045300089009120A1A1CAC5DB47A1819920BA03B6
:10454000B1E2A981A161A161A1619920A16190E07D
:1045500090C090E09900C245BA04B1C4C225B2052A
:1045600092264860400079A4A206994288C080C083
:1045700080C080E080C080C08901910188E188C04E
:1045800088E18921810178C078C081227D297D2838
:104590006CA66CA58D6995A995AAAE6C9DEA95A8A7
:1045A0009DE995886C4384E6AE2BB64E5B8722234B
:1045B0008D92540C6CEF85D18DF3BF58A6D57D90AC
:1045C00085D1754F6D0E9653A6F56CED8E129E73C8
:1045D0007D9085B07DB07DB07DB0754E7DB0756F3E
:1045E000967385F1544A85F18E3285D0754F6D2EC4
:1045F0006D2E758F33878E325CEC6D6E5CEC75D0F2
:104600007DF0650D5CEC5CCC5CEC4C4A4409967327
:104610009672546A758E86319ED396723B270981B5
:104620001A256CCE54CC654D656E54AB548B4C4AF8
:104630003BE93BA83BC85CAB546954696D0C5C8A90
:1046400064CA5C4775097509BEF17CCA00805B2AA3
:10465000FFFEAD34A4D3C5D8BD968C1094108BEF5B
:104660009C3193F19C529C5383B083B094329C93C1
:10467000B535ACF39CB27BAEAD337BCD6B2CCE3875
:10468000FFFFD69A7B8E084018C2840FA5148C10A9
:104690008BF09C739C73943283B07B8F526A29A5F4
:1046A00000404B2AB6B7B717A6F6B7987D70A6B5E7
:1046B0004BCA9E74C7B964AD8DD264CD64CD85D12B
:1046C000754F5C8C546B96939EF44C6A3BE87DF07E
:1046D0006D4D8E5264CE3B0829A23940CD0BD4E8F3
:1046E000D4C8BBC4CC66D486D4C6C444C403F5695C
:1046F000ED49D465C3A3B321B321D3E4CB84D3C59F
:10470000BAE2A240BB02CB44CB64CB449140A1E1CE
:10471000B222B222A9C1A1A1B202A1809920B1E224
:10472000A981A981B1C2A9A2A161A1419920990041
:10473000A9C3E36ABA4599419941A162A14299424C
:104740007963488050A081E599A4910188E088E1CF
:1047500088E0890188E088E19942A1639942994201
:10476000912280E078A0708078E181017D096C86DB
:1047700074A685488D8985287CC6850785078D6741
:104780009DC995A874A47CA59DAABE8F4B254B28D6
:104790008DB38DD37D5096338DF26CCE6CEE64CD9F
:1047A000967385D185B09E738E1285F19E94965333
:1047B00085B07D907D8F85F1A6D47D90967396739C
:1047C000B7578E1296539E948E328E327DB07DB046
:1047D000AF36756F969375AF8E528E726D8F5CEC9F
:1047E00086116D4E54AB5CCC650D54AB85F16D4EAE
:1047F0007DB0544A85F08E5175CF7DCF2284016102
:104800005BEC9634548B4CAB54CC33C74C8A5CEC89
:104810004C4B650E5CCC548B548A4C2843E743A622
:104820006CEB7D4B858A856995EC84EB21814AC8C8
:10483000D6B9DE9AB5359C52A49394318BF0ACF482
:104840009C52ACB4B4D57B2F6ACD8370A494A4B42D
:1048500049E8C5B7EF1C9450AD139470AD34D679C8
:10486000C618DEBAD6799CD23185000029244A299F
:104870005A8B8C1294335A8C5AAC41E8318629A554
:1048800019646C4EA63595F3A6B5BF58750FA6955D
:10489000B737BF587D503307750FAEF696337DB1ED
:1048A00043EA650E7DD09693650D3C096D4E8E52A0
:1048B00064EC546B4BEA32C729A328E0CD2CDD2AE7
:1048C000CC87D4A7D4A7D4A6DCE7D4A6ED48DCE7F0
:1048D000C3E3BB82BB62BB82BB62BB62D3E5D3E5F1
:1048E000CBA4C343D3A5D3C5BB02B2819980BA83FD
:1048F000CB05B2229960A1A0A9C1A9A1BA03A9A11F
:10490000A140A140B1C2B203A9A2A161BA45BA4572
:10491000A1A2A18288C090C0A18290E088A09962E3
:1049200081C45901590179C48942910191019101D0
:1049300088C088C088E19101992299229901994201
:104940009943890189018101892280E1854A74C7DF
:10495000854995CA8527748574A57CE695A9850641
:104960008D478D47850695689DA9BE8F4B0532A55D
:104970008DB29E3496138E12B71796139E94AF166F
:104980007D90754F9E949632752E85B096327D90AF
:1049900085D18E126D2E756F754F64ED7DB08E12C0
:1049A00085D164CC85B0754E754F965343E9754FEC
:1049B0006D2E650D7DD08E527DF086318E72654DE7
:1049C0004C8A3BC84429652D650D44296D4E758F71
:1049D00064EC7D8F652D652D96D36D4E3327014197
:1049E00032E7542C3C09448A2B872B8754AB5CEC70
:1049F0002B462B26546B4C4A3BA644076CEC6D0CA3
:104A0000752C64885404644585298D6C08E0214226
:104A1000AD74DE7ABD56A473A494ACB4A473B4F59B
:104A200093F193F1A453941294128BD18BF1730DE3
:104A30006AED8BF07B8FBD779451CE17C5D6A4F36A
:104A40009CD3AD54AD74D6B9C6376B4C108218C325
:104A50002925290541C9398829053186212421853F
:104A60007C70A616BED8CFBBAEB68DB2857185510F
:104A7000AEB6AEB6857174EFB717AED685D18E12CD
:104A800064ED7DD17DD185F15CCC4C6B75D06D6EC4
:104A9000756E440964CD3B08192020A0CD2CCCA80C
:104AA000C4269280BBC3C445C444CC64C403BBC207
:104AB000BBC2C3E3C3A3C3C3D405D405D405C38316
:104AC000BB22BB02B2E1CB84D3A4C323BAC3C2C40A
:104AD000D346BAA3B201BA43A9C1A9A0BA23BA2343
:104AE000B202A160910091009960B203B204A9E3FF
:104AF000A1619120A18299419120A9A290E09142C7
:104B0000796248A040607183916388E1994299423B
:104B10009101912199429942992190E1A1229922F2
:104B2000A142994299429142890180E05C25644604
:104B3000854995CA85487CE6850785278526A60A86
:104B400095889567958895889DAABE8F42C419C29D
:104B500085309614752F8DF29E33859196539E74F1
:104B60008E129E7385B08DF1756F754E96537D6F65
:104B70008E117D905C8C7DB0754F756F85D196538D
:104B800096737D90A6D4A6D5752E9E94BF989ED47C
:104B9000861185F16D6E75AF75CF6D8E652D652DA6
:104BA0006D4D54CB5CEC652D4C6A548B758F4C4A23
:104BB000548B758E758E86317DEF5CAB540B11E393
:104BC00032C76CEE4C6B4CAA3BE82B873C0854ABCD
:104BD000442A3388336743E85CAA44073B866CEB7E
:104BE0006CEB6CC95C448DA98D697CCA29C110E04D
:104BF000632BB5559C73A4947B2E9C32B51593F111
:104C00008B9093D293B18B91B4F6A494730EAC9421
:104C1000ACB4CDD88BF162ACA4F49CB2AD54BDF76A
:104C2000630B9CD2D699A533A534B5B694B26B4D1F
:104C300041E8314739883167294639E842284AA98D
:104C40006BEE8D339594C7199DF48D929E14B69694
:104C5000A6557D105C2CAEB6AEF6859185D185F259
:104C60007DB0756F756F86127DB075B086528631D6
:104C70005CAB6D2D8DF23B0700603140DDAEC4476B
:104C8000BC05B3A3B3A3CC65D4C6D4C6D485B381C5
:104C9000C404D486CC25CC25D425C3A4BB63BB22B5
:104CA000CBC5DC26BAE2B2C1D3A5BAE2C2E3C2C325
:104CB000BA62AA01CAE5D2E5A9C1C264BA02A9C111
:104CC000A9C1B1E2A160A9C2BA85A9E29941A1A294
:104CD000A1819120A1A2A1A2A161B1C390E09162A2
:104CE000796250A0404061028942912290E199018D
:104CF0009101910188E090E090E090E09901A1425B
:104D0000A983A1839983914280E178C05C265C05E8
:104D100074C78D89854885078D4895A98D689588C4
:104D2000852674838D277CC584E6AE0D4B04220353
:104D30008D927D3064AD85908DB285B19E74965311
:104D4000754F9E736CCD6CEDA6F596529E73752EC5
:104D50005C8B64ED7DB09673756F6D0E85F185F19A
:104D600085D19652963285B0B7369E947D90A6F541
:104D7000756F6D4E8E32A7155D0C652C54CB54CBE0
:104D8000446954CB75AF650C548B546B440933871D
:104D90006D2D756E7DAF75CF656D75CF64AD0141BD
:104DA0001A045C4C33C83C49446A444A4449444967
:104DB000442A33882B263387338623043B8664CBEF
:104DC00064897D2A7D4885488D8984E96BC90040C6
:104DD0004A67A5138BF0836F93D1B4F5836F7B2E55
:104DE0009C137B0F72CEB4B5BD3793F293F2A474CB
:104DF00072EDB4F5A4B49432BD97E6FB9492C63834
:104E0000D6BADF1BC67894F294D28450BE18FFFF46
:104E1000E71DA4F57370420A318839E839E8426920
:104E2000110309032A0621E5538B640D748F8D311C
:104E3000B6B67CEF8D71B6D69E548DB1AF16A6D5A1
:104E40007DB08E12AF3785F2652E86327DF1758F7B
:104E500064EC8E31542A2244190041C1D56DB3E56A
:104E6000B3C5BBC4CC45DD08E548D506D485CC65C3
:104E7000D486DC86D445C3A3BB63C3A4AAC1CBA498
:104E8000D3C5C364BB23AAA1BB23C324A1E0B24101
:104E9000AA21B242D305BA42A9C0C243A9C1BA23CA
:104EA000A9A1A9A1BA64BA64A1C289009940996173
:104EB000A161A161A9C2A9A2A98299209900A9E42E
:104EC00089E46122592281E599C599639922990162
:104ED0009962914288E091019901A142A122B1A475
:104EE000A9A49122910180C080E078C095CC64464D
:104EF0006C658548852774A574A57CC595888D67E4
:104F00009DC99DC884E574647CA6AE0D3A822203D7
:104F10007CF0646E5C6C648C7D3095F39E539632AD
:104F200085D18E1296128DF196328DF185D185F153
:104F30008E1296536D2E5C8B85F1967385F18E32B1
:104F400096539EB49632AEF5A6D564CD7D90AF361D
:104F500043E94C4A9EF4758E7E105D0C6D8E865032
:104F60005D0C650C6D6E650C4C6A4C4A756F85F175
:104F700064CC44097DAF75CF6DAE7E104BEA09A2BB
:104F800022253B694C4B54CC446A3C295CEC4429B7
:104F9000442A4C4A338743E85C8A4C286D2C7D8D2B
:104FA000752B6D098DCA9E2B85287CE8AE103223A7
:104FB00039E4630A94309411B515AC946ACD93F238
:104FC0009C1383309BD3AC75835093D3BD18AC96A0
:104FD00072EEBD36C5778BD1734E9C938C51A51460
:104FE000A514C618C617C658C678A554B5B6D69A1D
:104FF000DEFCBDD8C619C6198C3284117C108CB267
:1050000094F35B6C530A2A0632471122114209219C
:1050100021E443097CD085108D91AEB69E34963341
:105020009674A6D5AF369ED58E736D6F5CED6D6EA2
:1050300086317DAF5C4B2A4419215223BCAAB406A9
:10504000AB63BBA4CC86CC65D506D506C424CC44C2
:10505000D4A6E4E8E4C8DC87DC67D426CBA4E46704
:10506000D3E5AAC1D3E6BB44AAA1CB85C303C2E35F
:10507000BA82CB04D345B201BA42C283BA01B1C1EC
:10508000B1C1B1E2B202A1A19961A9C2A1819940C5
:10509000B1E2A181A9A299209920A141A982B204DB
:1050A0009225694250C07163A1C5A163992288C04D
:1050B0009101910188E0992190E090E0888090E151
:1050C00090C080A08901788078C080E06C86854996
:1050D0008D8995CA95C98D877D068D479DC995880F
:1050E000A6099DC8958884E67CC6BECF5B863264DF
:1050F0008D517D1085919E5485B185B19613B7175A
:105100009E748E129632AED59632A6D585D185B0D4
:105110009E948E126D2E7DB08E528E329673965363
:10512000A6D59673AF168DF185B0A6B4756F650DD3
:10513000756F652D5CCC6D6E652C54AB7E106D8DDE
:10514000652C75AE758E5CAB5CCC7DB0756F6D2FCC
:105150005C8C6D2D96935CEC6D8E4C6A332622A58B
:1051600009A26CCE6D2F5CED54EC444954AC5CED5F
:105170004C6A4C494C295CAA5C8A44074C675CC861
:105180006D297549962C85688D688508A60D7C89E2
:10519000192029425A899472CE19A49494338BB25F
:1051A0006A8E8B72A41483516A6D7B10ACB6AC7599
:1051B0008350BD377B4F6AAD9432945283B083D015
:1051C000BD77C5F88C509CF2A554B5B6BDD6A514D4
:1051D000A534B596B5B6E73CE73DE77DDF1CD6BA0A
:1051E000EF9DFFFFBE37ADB5AD959D336B8D73CE93
:1051F0003A4829C5196411232A06538B8531AE9686
:10520000AEB69E54A6B4AF1585F18E5275D18632D6
:10521000652D5449646C2A44088020A0B469C48771
:10522000B3A49AE0CC86BC23D4E5E546D485D485E6
:10523000E507E4E8DCC7DC87ECE9CC05CBE5C3A4F3
:10524000BB63CBC5D3E6A260AA81D3A6D385B261E6
:10525000CB24D365C2A2CAE3CAC4CA83C242B9E19D
:10526000BA02B9E1BA02B203A9C2A9E3A9A2A9810B
:10527000B1E2A960A9A2A961A161C224C225A1A32A
:1052800079425080402068E2916388E19101910267
:10529000808088C1994291019121994188C088A05C
:1052A00091019142914180E080C080E074A67CE74A
:1052B0008D899E0A852685478D678D88850685059B
:1052C00095678D468D479568A5EAD7525BA72A2337
:1052D00095B37D10857196328DF2961385B1B71610
:1052E00085B1752F85D1B757B716AED58E128DF112
:1052F000963285F1756F7D908E127DD096528E120A
:105300008E119632A6B4752E85908E126D0D7DD0BD
:105310006D4E75AF6D4E86315CEC75AE7DEF656D93
:105320007DEF75AE6D4D650D5CAC546B5CAD64CDC1
:105330006CED7D6F650D5CEC7DF0440943C933274E
:1053400001415C6D5C8D652E4C6A33E8444A442A09
:1053500054AB44085469546A4C084C2854885CC8BF
:105360006D0864E775287D2795A97CC68508956B2F
:105370007C4A32042964736E7BB083D19C958BF395
:1053800083718B928BB293D393B293B28B92A434EA
:10539000A454CD985A2B7B2F93F27B2E9C539412BE
:1053A00083D1ACF5A4F4AD14840FA4F3CE39B59633
:1053B0009CB2AD54CE58CE79C638E73CDEFBAD95F5
:1053C000CE78F7BDC657DEDAC638FFDFC638B5D6A9
:1053D000BE17A554A575740F3A6821A52A055BCCA4
:1053E0008571A6B59E948E328611A7156D4F6D8F6F
:1053F00075AE5CAB648C3A8618E028C0CD4CC4A86E
:10540000B3C4AB62BBE3B3C2CC84DD26E506DCE605
:10541000D485D486E4E8DC86D425BB83AAE1A280C7
:10542000A2A0C3A4AAC1BB43B303A240C303D344F5
:10543000BAA2C303D324CAE3C282D2E4DB05CA837F
:10544000C242BA01BA02B202A9A2A161A160A160DE
:10545000B1A1A140A140A981A9A2A98298E0A1A3DC
:105460008183484040207963998388C0994299425A
:1054700088C190E1910188C090E09941910191210A
:10548000A183A1A3996280E080C080C0856A74C7AF
:1054900085687D068D88A62A8D67A62A956795A7BB
:1054A0009DC88D258D0695679D89C6D0430419C179
:1054B0009DF48D928DD29E949E7485916CEEA6B5CE
:1054C0004BEA64CD8E128DF17D6F8E118DF185D1F9
:1054D0009E739E73756F6D2E85D1756F6D0E8E12D6
:1054E0008E329EB48DF19652965385B0C7D996935D
:1054F000758F6D6E8E526D4D654D7DEF654D652CD2
:10550000652C758E86105CCC548B7D907DD1756F2B
:105510008E12752E650C652D7E1054AB756F33277A
:10552000012043AA64AD5CCC3BE833E73C2933C897
:105530004C8A4449440943E84C294C085C896D0A6B
:105540005C667D6A7D286CA595CA8D8995899DAC20
:10555000A5F063AB08A2190529A8424B6B8F7BB05D
:105560008C338C1283718350837093D19BD2AC7433
:10557000830EAC7472CEA45472CE7B2FB4F683919A
:105580006AAD83B1A4B4A4D47B8E9C52ACF49C923B
:105590009C729CD3B555AD55B5B6AD75A513AD741C
:1055A000CE58E73BE75BC637D699DEFBAD7594B2C4
:1055B000D6DADF1BCE99EFBDDF5B9D733A881163AE
:1055C0002A6674CFAED6A6B58E32A6F58E5385F177
:1055D0007DCF650C750E3AC608603960DDEEC4A754
:1055E000AB82CC45D4A6CC64D4C5E527E527E50736
:1055F000D485DCA6E507DCC7CC24BB82BB83B342E1
:10560000B2E1A2A0A280AAE1B2E1B2C1D385D3A542
:10561000BAA1D384D364C2C2BA62C283CAA3BA0194
:10562000C221CA83CA83B1E2A981A181A9A1A160D3
:10563000A960A980A9819900A14199209900996246
:10564000818350604020716399A49121910191015F
:1056500091029922910188A088A090E090E090E1C9
:1056600099429141912180C08921912295CB854910
:105670007D077D068D88A62A8D679588A5E9A62ACF
:10568000A6098D258D268D267CA5AE2D3AA319A1C0
:105690008D718DB296339E749E54752F648C9E735B
:1056A0007D4F8E129632752E7D4F96328DF16D0D97
:1056B000752E85D17D8F754E85D185D16D0E754F37
:1056C00085F196527D907D6F7D906D2EBF9764ED34
:1056D000756F967275AF54AB6D8E654D54EB54CBB0
:1056E0005CEB650C64EC5CCC6D4E6D2E6D4E6D0EFE
:1056F0006D0E64AC756E75AF7E107DD06D0E2AC6D2
:10570000018243AA546C442A3BE85D2C656E5D0C13
:10571000652D5D0D548B4C4A546A54294BC76CCA95
:10572000646774C864455C038D6895EA84E8956C89
:105730006C4B19E4222953902A4C00E6090521A755
:105740005B2E73906B508BF3A4959C538391835085
:10575000836F7B2F6A8D83506A8D72EF9C137B3031
:105760009C3472EE9C12A493ACD4A49394117B4EFF
:1057700083AF9C928C10736DA4F3A513840F73AD4B
:10578000AD54D699AD95A513B5B5C63894D294D27B
:10579000E73BCE7894B1D6D9E79CB5F6A5B46C2E8C
:1057A00019C40962646DA67596128E129E9485F1D5
:1057B0007DCF7D8F8DD25BCB00203120BCCAB4055C
:1057C000CC66E528E528CC44D4C6ED48ED28E4E6CF
:1057D000CC44D485D485D465CC04CBE4CC05DC673B
:1057E000BB63BB43C363D405AAA0AAC1DBE5CB84DA
:1057F000AA60CB64CB23AA40B220BA41B1E0BA017F
:10580000C262C242BA22B201BA43BA23BA23B1E198
:10581000B1E1BA02B1C2B1C2BA049920A161A1A397
:1058200089E458A040207122896388E088C088C03C
:105830009101910190E1910190E090E090E091015F
:10584000910188E0890080C0914291226C8774C7E1
:105850009E0B9E0B8D689DE9A60A7D059DA89DC89F
:1058600095678D059DA895678D07B66E42E33AA5AD
:1058700095B27D30752F85D185B1752F6CCD96127F
:10588000AED5A6B58DF18DF1961285D18E127D9093
:1058900064CD6D0E85D185D185D1756F64ED7D9018
:1058A000965385F1754E544B752E8E12B7978E1206
:1058B0007DD04C4A758F654D6D8E6D4D6D6D6D8EC5
:1058C0008630652C5CAB6D6E64EC64ED85F16D2EFD
:1058D00085B085D0758F758E75AF8631754F4369EC
:1058E000018233074C0A440A4C8A75CE656D4469BF
:1058F00054CB54AB4C6A4C295C8A5C4A53E75C2815
:105900005C2674A774A674A59E0A9E0B850A958FC3
:10591000120401C665157DDA5CD743B2228C11A949
:105920001168114829CB4AAE6B71632F6B508C7490
:105930008C126B0E8BF3730F7B508BB19C136AAD83
:105940008B7072CD624A8B8EA431834E836F8BD065
:105950008BD0730D7B6E8BF09451AD14A4F38C2F10
:105960009CD294917BEEBE17D6BAB5B5AD95D699BB
:10597000AD74A553CE78EF7BCE98C678DF5BC6B901
:10598000534B21E52A466C8D8591542B754E9651CB
:105990006D2C6D2D85914B4908A028E0AC69C4C8D9
:1059A000F5ECCC86C424C423DD06E527ED48DCA64F
:1059B000CC24D4A6DCA6CC45C3E4D466CBE4D42561
:1059C000C3C4B342DC46D426C3A4C3A4C343C32286
:1059D000B2E1D3C4DBC5B2A1C2C2C2A2B220C2A28C
:1059E000D304C262BA41BA22CA84BA43B202BA022A
:1059F000B1E1B1C1B1C2B1C2B1E3B1E3A161AA04E5
:105A00009A2560E148606922894291419963912217
:105A1000910288E19101A142992190E0910199427E
:105A200099629121912188E0892180C06C675C2571
:105A3000644564448D68854795887CE68D47A5E973
:105A4000A5E9A5E99DA884E69D89C6F04B252A23F2
:105A50008D918DB27D2F8DF17D707D507D7085B1E2
:105A600096127D9085D185D09E5396528E12963295
:105A70006D2E754E965296738E125CAC5C8C64EDF6
:105A80005CAC64ED7D909EB49E93B756B797A6F537
:105A9000758F43E98E725CEC6D8E654D86518E92EA
:105AA00096B2652C650C7DAF5CCC6D4E758F6D2EFE
:105AB0008E3285F17DB075AF8E92650D754F4BA915
:105AC000012022657550546B548A5D0B33E63C28E7
:105AD000446954AB5CCB4C49544964CB7D6D6468DC
